:020000040800F2
:1000000000000120C50500081506000815060008B7
:100010001506000815060008150600080000000077
:1000200000000000000000000000000015060008AD
:100030001506000800000000150600081506000857
:100040000000000015060008150600081506000847
:100050001506000815060008150600081506000814
:100060001506000815060008150600080000000027
:100070000000000000000000000000000000000080
:10008000000000000000000015060008000000004D
:10009000000000000000000000000000150600083D
:1000A00015060008150600081506000815060008C4
:1000B00015060008150600080000000015060008D7
:1000C00015060008150600081506000815060008A4
:1000D00015060008000000000000000000000000FD
:1000E00015060008150600081506000800000000A7
:1000F0000000000000000000000000000000000000
:1001000000000000150600080000000015060008A9
:1001100000000000000000000000000000000000DF
:1001200000000000000000000000000000000000CF
:1001300000000000000000000000000000000000BF
:10014000000000000000000000000000150600088C
:10015000000000000000000000000000000000009F
:100160001506000815060008000000000000000049
:10017000000000000000000000000000000000007F
:10018000000000001506000800000000000000004C
:040190001506000848
:1001940010B5054C237833B9044B13B10448AFF3BD
:1001A40000800123237010BD2C04002000000000F7
:1001B4007C07000808B5034B1BB103490348AFF3A0
:1001C400008008BD00000000300400207C07000807
:1001D40080B483B000AF8A4B1B68894A43F00203A2
:1001E4001360884B1B68874A23F040031360854BD8
:1001F4001B68844A23F080031360834B1B68824A84
:1002040043F040031360804B1B687F4A23F0800354
:1002140013607C4B1B687B4A43F480631360794B07
:100224001B68784A23F400631360784B1B68774A91
:1002340023F020031360734B1B68724A43F480530A
:100244001360704B1B686F4A23F4005313606F4BA9
:100254001B686E4A23F0400313606A4B1B68694AAB
:1002640043F480431360674B1B68664A23F40043DE
:100274001360664B1B68654A23F0800313600023F8
:100284007B6000BF624B1B6803F00803002BF9D1AD
:1002940000233B6002E03B6801333B603B685D4AFE
:1002A4009342F8D95A4B1B6803F00803002BE8D19A
:1002B4007B68002B14D101237B60544B1B68534A89
:1002C40023F020031360514B1B68504A23F0400372
:1002D40013604E4B1B684D4A23F080031360B2E059
:1002E4007B68012B14D102237B60484B1B68474A6F
:1002F40023F020031360454B1B68444A23F040035A
:100304001360424B1B68414A43F0800313609AE038
:100314007B68022B14D103237B603C4B1B683B4A54
:1003240023F020031360394B1B68384A43F0400321
:100334001360364B1B68354A23F08003136082E058
:100344007B68032B14D104237B60304B1B682F4A3A
:1003540023F0200313602D4B1B682C4A43F0400309
:1003640013602A4B1B68294A43F0800313606AE038
:100374007B68042B14D105237B60244B1B68234A20
:1003840043F020031360214B1B68204A23F04003F1
:1003940013601E4B1B681D4A23F08003136052E058
:1003A4007B68052B14D106237B60184B1B68174A06
:1003B40043F020031360154B1B68144A23F04003D9
:1003C4001360124B1B68114A43F0800313603AE038
:1003D4007B68062B20D107237B600C4B1B680B4AE0
:1003E40043F020031360094B1B68084A43F04003A1
:1003F4001360064B1B68054A23F08003136022E058
:1004040030380240000402400C040240040402405C
:10041400100402407F3801007B68072B13D10023AE
:100424007B600D4B1B680C4A43F0200313600A4B9E
:100434001B68094A43F040031360074B1B68064AD4
:1004440043F08003136000BF044B1B6803F00803F0
:10045400002BF9D015E700BF040402401004024049
:1004640080B500AF164BD3F88830154A43F47003B7
:10047400C2F88830134B1B68124A43F0010313601F
:10048400104B00229A600F4B1B680E4A23F08473B2
:1004940023F4803313600B4B0B4A5A60094B1B68DF
:1004A400084A23F480231360064B0022DA6000F02C
:1004B4000DF8034B4FF000629A6000BF80BD00BF8F
:1004C40000ED00E0003802401030002480B483B016
:1004D40000AF00237B6000233B60354B1B68344A2C
:1004E40043F480331360324B1B6803F400333B60E6
:1004F4007B6801337B603B68002B03D17B68B3F5D9
:10050400A04FF0D12A4B1B6803F40033002B02D018
:1005140001233B6001E000233B603B68012B40D199
:10052400234B1B6C224A43F080531364214B1B68FA
:10053400204A43F4404313601D4B1D4A9B6893605B
:100544001B4B1B4A9B689360194B9B68184A43F4E6
:1005540080539360164B184A5A60154B1B68144A13
:1005640043F08073136000BF114B1B6803F00073EA
:10057400002BF9D0114B40F202721A600C4B9B68AD
:100584000B4A23F003039360094B9B68084A43F02A
:100594000203936000BF064B9B6803F00C03082B17
:1005A400F9D100BF0C37BD465DF8047B704700BF2E
:1005B400003802400070004019544107003C0240DA
:1005C4000D4885460D480E490E4A002302E0D458D2
:1005D400C4500433C4188C42F9D30B4A0B4C002387
:1005E40001E013600432A242FBD3FFF739FF00F0AD
:1005F40011F8FFF7EDFDFEE70000012000000020E8
:100604002C040020A40700082C0400206C04002003
:10061400FEE7000070B50D4E0D4D761BB61006D0EA
:100624000024013455F8043B9847A642F9D1094EF9
:10063400094D761B00F0A0F8B61006D00024013452
:1006440055F8043B9847A642F9D170BD98070008B5
:1006540098070008A007000898070008024B13B188
:10066400024800F005B87047000000008106000849
:10067400002301461A46184600F01EB838B50A4C45
:100684000A4D641BA4100AD004F18043013B05EB1E
:100694008305013C55F804399847002CF9D1BDE88D
:1006A400384000F06FB800BFA4070008A007000896
:1006B400704700BF704700BF2DE9F8432B4D064635
:1006C400286898460F469146FFF7F2FF284B1C68AE
:1006D400D4F84831002B3DD05A681F2A0DDC02F1B2
:1006E400010C16BB0232C3F804C0286843F8227018
:1006F400FFF7E0FF0020BDE8F8831E4B7BB34FF407
:10070400C870AFF30080034648B3D4F848210021F1
:10071400C0E900214FF0010CC4F848010A46C0F8B2
:100724008811C0F88C11002EDCD003EB8201012467
:10073400C1F88890D3F8880194402043022EC3F86E
:100744008801C1F80881CDD1D3F88C110C43C3F8CA
:100754008C41C7E704F5A673C4F84831BCE72868A0
:10076400FFF7A8FF4FF0FF30C5E700BF28040020C3
:100774009407000800000000F8B500BFF8BC08BCEE
:100784009E467047F8B500BFF8BC08BC9E4670474B
:040794000000002041
:0807980061060008B901000828
:0407A00095010008B7
:1007A40000000000EC02002054030020BC030020E1
:1007B4000000000000000000000000000000000035
:1007C4000000000000000000000000000000000025
:1007D4000000000000000000000000000000000015
:1007E4000000000000000000000000000000000005
:1007F40000000000000000000000000000000000F5
:1008040000000000000000000000000000000000E4
:1008140000000000000000000000000000000000D4
:1008240000000000000000000000000000000000C4
:1008340000000000000000000000000000000000B4
:1008440000000000000000000100000000000000A3
:100854000E33CDAB34126DE6ECDE05000B00000068
:100864000000000000000000000000000000000084
:100874000000000000000000000000000000000074
:100884000000000000000000000000000000000064
:100894000000000000000000000000000000000054
:0C0BC400000000000000000048040020B9
:04000005080005C525
:00000001FF
