:020000040800F2
:100000000000012061080008B1080008B1080008DC
:10001000B1080008B1080008B1080008000000009D
:10002000000000000000000000000000B10800080F
:10003000B108000800000000B1080008B10800087D
:1000400000000000B1080008B1080008B10800086D
:10005000B1080008B1080008B1080008B10800089C
:10006000B1080008B1080008B1080008000000004D
:100070000000000000000000000000000000000080
:100080000000000000000000B108000800000000AF
:10009000000000000000000000000000B10800089F
:1000A000B1080008B1080008B1080008B10800084C
:1000B000B1080008B108000800000000B1080008FD
:1000C000B1080008B1080008B1080008B10800082C
:1000D000B10800080000000000000000000000005F
:1000E000B1080008B1080008B108000800000000CD
:1000F0000000000000000000000000000000000000
:1001000000000000B108000800000000B10800086D
:1001100000000000000000000000000000000000DF
:1001200000000000000000000000000000000000CF
:1001300000000000000000000000000000000000BF
:10014000000000000000000000000000B1080008EE
:10015000000000000000000000000000000000009F
:10016000B1080008B108000800000000000000000D
:10017000000000000000000000000000000000007F
:1001800000000000B10800080000000000000000AE
:04019000B1080008AA
:1001940010B5054C237833B9044B13B10448AFF3BD
:1001A40000800123237010BD2C04002000000000F7
:1001B400180A000808B5034B1BB103490348AFF301
:1001C400008008BD0000000030040020180A000868
:1001D40080B483B000AF7860084611461A460346DF
:1001E400FB700B46BB7013467B70204B1A6B7B78FD
:1001F400012101FA03F31D4913430B63BB78002B60
:1002040016D07B681A68FB785B00012101FA03F3BE
:100214001A437B681A607B681A68FB785B000133B9
:10022400012101FA03F3DB431A407B681A6016E0EC
:100234007B681A68FB785B00012101FA03F3DB4356
:100244001A407B681A607B681A68FB785B0001338C
:10025400012101FA03F3DB431A407B681A6000BFF3
:100264000C37BD465DF8047B704700BF0038024080
:1002740080B483B000AF78600B46FB701346BB704C
:100284007B681A68FB785B00012101FA03F31340D1
:10029400002B18D0BB78002B09D07B685A69FB78F7
:1002A400012101FA03F31A437B685A6109E07B6870
:1002B4005A69FB78012101FA03F3DB431A407B6896
:1002C4005A61002300E0012318460C37BD465DF84F
:1002D400047B704780B485B000AF78600B46FB7038
:1002E4000023FB737B681B69DAB2FB78012101FAF6
:1002F40003F3DBB21340FB73FB7B18461437BD4694
:100304005DF8047B7047000080B584B000AF002323
:1003140001220121BC48FFF75BFF002301220221D7
:10032400B948FFF755FF002301220321B648FFF720
:100334004FFF002301220421B348FFF749FF0023A4
:1003440001220521B048FFF743FF002301220621C3
:10035400AD48FFF73DFF002301220721AA48FFF71C
:1003640037FF002300220021A748FFF731FF0023B5
:10037400FB600021A448FFF7ADFF03467B60002328
:10038400BB6002E0BB680133BB60BB6841F28732EB
:100394009342F7D900219C48FFF79CFF0346FB706A
:1003A4007B68002BE5D0FB787A689A42E1D0FB6841
:1003B400092BDED801A252F823F000BFE90300089C
:1003C4003704000885040008D30400082105000848
:1003D4006F050008BD050008110600085F06000847
:1003E400AD060008012201218748FFF741FF0122E1
:1003F40002218548FFF73CFF012203218248FFF7D1
:1004040037FF012204218048FFF732FF0122052132
:100414007D48FFF72DFF012206217B48FFF728FFC7
:10042400002207217848FFF723FFFB680133FB60B4
:1004340060E1002201217448FFF71AFF0122022122
:100444007148FFF715FF012203216F48FFF710FFE2
:10045400002204216C48FFF70BFF002205216A48A3
:10046400FFF706FF002206216748FFF701FF00227D
:1004740007216548FFF7FCFEFB680133FB6039E1A7
:10048400012201216048FFF7F3FE012202215E48A8
:10049400FFF7EEFE002203215B48FFF7E9FE01228D
:1004A40004215948FFF7E4FE012205215648FFF7CD
:1004B400DFFE002206215448FFF7DAFE012207215D
:1004C4005148FFF7D5FEFB680133FB6012E10122BE
:1004D40001214D48FFF7CCFE012202214A48FFF7D3
:1004E400C7FE012203214848FFF7C2FE012204216E
:1004F4004548FFF7BDFE002205214348FFF7B8FE3B
:10050400002206214048FFF7B3FE012207213E489E
:10051400FFF7AEFEFB680133FB60EBE00022012134
:100524003948FFF7A5FE012202213748FFF7A0FE54
:10053400012203213448FFF79BFE002204213248A4
:10054400FFF796FE002205212F48FFF791FE0122B6
:1005540006212D48FFF78CFE012207212A48FFF7C8
:1005640087FEFB680133FB60C4E0012201212648B9
:10057400FFF77EFE002202212348FFF779FE0122C5
:1005840003212148FFF774FE012204211E48FFF7CE
:100594006FFE002205211C48FFF76AFE0122062196
:1005A4001948FFF765FE012207211748FFF760FE8F
:1005B400FB680133FB609DE0012201211248FFF733
:1005C40057FE002202211048FFF752FE01220321A8
:1005D4000D48FFF74DFE012204210B48FFF748FEAA
:1005E400012205210848FFF743FE0122062106489F
:1005F400FFF73EFE012207210348FFF739FEFB689F
:100604000133FB6076E000BF0000024001220121BB
:100614003948FFF72DFE012202213748FFF728FE53
:10062400012203213448FFF723FE0022042132482B
:10063400FFF71EFE002205212F48FFF719FE0022B6
:1006440006212D48FFF714FE002207212A48FFF750
:100654000FFEFB680133FB604CE0012201212648B8
:10066400FFF706FE012202212348FFF701FE0122C3
:1006740003212148FFF7FCFD012204211E48FFF756
:10068400F7FD012205211C48FFF7F2FD0122062196
:100694001948FFF7EDFD012207211748FFF7E8FD90
:1006A400FB680133FB6025E0012201211248FFF7BA
:1006B400DFFD012202211048FFF7DAFD01220321A8
:1006C4000D48FFF7D5FD002204210B48FFF7D0FDAC
:1006D400002205210848FFF7CBFD01220621064828
:1006E400FFF7C6FD012207210348FFF7C1FD0023E0
:1006F400FB6000BF3DE600BF0000024080B500AFD4
:10070400164BD3F88830154A43F47003C2F8883086
:10071400134B1B68124A43F001031360104B002271
:100724009A600F4B1B680E4A23F0847323F48033C2
:1007340013600B4B0B4A5A60094B1B68084A23F49D
:1007440080231360064B0022DA6000F00DF8034B9F
:100754004FF000629A6000BF80BD00BF00ED00E072
:10076400003802401030002480B483B000AF00236E
:100774007B6000233B60354B1B68344A43F4803371
:100784001360324B1B6803F400333B607B68013316
:100794007B603B68002B03D17B68B3F5A04FF0D19D
:1007A4002A4B1B6803F40033002B02D001233B6067
:1007B40001E000233B603B68012B40D1234B1B6CC1
:1007C400224A43F080531364214B1B68204A43F4AC
:1007D400404313601D4B1D4A9B6893601B4B1B4A8F
:1007E4009B689360194B9B68184A43F48053936049
:1007F400164B184A5A60154B1B68144A43F0807311
:10080400136000BF114B1B6803F00073002BF9D079
:10081400114B40F202721A600C4B9B680B4A23F096
:1008240003039360094B9B68084A43F002039360F7
:1008340000BF064B9B6803F00C03082BF9D100BFE3
:100844000C37BD465DF8047B704700BF003802409A
:100854000070004019544107003C02400D48854691
:100864000D480E490E4A002302E0D458C450043304
:10087400C4188C42F9D30B4A0B4C002301E01360DB
:100884000432A242FBD3FFF739FF00F011F8FFF75F
:100894003BFDFEE700000120000000202C040020A6
:1008A400400A00082C0400206C040020FEE700002D
:1008B40070B50D4E0D4D761BB61006D000240134D4
:1008C40055F8043B9847A642F9D1094E094D761BC9
:1008D40000F0A0F8B61006D00024013455F8043B0B
:1008E4009847A642F9D170BD340A0008340A0008BA
:1008F4003C0A0008340A0008024B13B1024800F015
:1009040005B87047000000001D09000800230146D7
:100914001A46184600F01EB838B50A4C0A4D641B36
:10092400A4100AD004F18043013B05EB8305013C8C
:1009340055F804399847002CF9D1BDE8384000F047
:100944006FB800BF400A00083C0A0008704700BFA7
:10095400704700BF2DE9F8432B4D0646286898469A
:100964000F469146FFF7F2FF284B1C68D4F8483134
:10097400002B3DD05A681F2A0DDC02F1010C16BB76
:100984000232C3F804C0286843F82270FFF7E0FF7E
:100994000020BDE8F8831E4B7BB34FF4C870AFF35F
:1009A4000080034648B3D4F848210021C0E900215F
:1009B4004FF0010CC4F848010A46C0F88811C0F889
:1009C4008C11002EDCD003EB82010124C1F8889045
:1009D400D3F8880194402043022EC3F88801C1F85B
:1009E4000881CDD1D3F88C110C43C3F88C41C7E7EF
:1009F40004F5A673C4F84831BCE72868FFF7A8FFDC
:100A04004FF0FF30C5E700BF28040020300A00087B
:100A140000000000F8B500BFF8BC08BC9E46704753
:0C0A2400F8B500BFF8BC08BC9E46704747
:040A300000000020A2
:080A3400FD080008B9010008EB
:040A3C009501000818
:100A400000000000EC02002054030020BC03002042
:100A50000000000000000000000000000000000096
:100A60000000000000000000000000000000000086
:100A70000000000000000000000000000000000076
:100A80000000000000000000000000000000000066
:100A90000000000000000000000000000000000056
:100AA0000000000000000000000000000000000046
:100AB0000000000000000000000000000000000036
:100AC0000000000000000000000000000000000026
:100AD0000000000000000000000000000000000016
:100AE0000000000000000000010000000000000005
:100AF0000E33CDAB34126DE6ECDE05000B000000CA
:100B000000000000000000000000000000000000E5
:100B100000000000000000000000000000000000D5
:100B200000000000000000000000000000000000C5
:100B300000000000000000000000000000000000B5
:0C0E60000000000000000000480400201A
:040000050800086186
:00000001FF
