:020000040800F2
:10000000000001203509000885090008850900085D
:10001000850900088509000885090008000000001E
:10002000000000000000000000000000850900083A
:1000300085090008000000008509000885090008FE
:1000400000000000850900088509000885090008EE
:100050008509000885090008850900088509000848
:1000600085090008850900088509000800000000CE
:100070000000000000000000000000000000000080
:1000800000000000000000008509000800000000DA
:1000900000000000000000000000000085090008CA
:1000A00085090008850900088509000885090008F8
:1000B000850900088509000800000000850900087E
:1000C00085090008850900088509000885090008D8
:1000D000850900080000000000000000000000008A
:1000E000850900088509000885090008000000004E
:1000F0000000000000000000000000000000000000
:1001000000000000850900080000000085090008C3
:1001100000000000000000000000000000000000DF
:1001200000000000000000000000000000000000CF
:1001300000000000000000000000000000000000BF
:100140000000000000000000000000008509000819
:10015000000000000000000000000000000000009F
:100160008509000885090008000000000000000063
:10017000000000000000000000000000000000007F
:1001800000000000850900080000000000000000D9
:0401900085090008D5
:1001940010B5054C237833B9044B13B10448AFF3BD
:1001A40000800123237010BD4404002000000000DF
:1001B400EC0A000808B5034B1BB103490348AFF32D
:1001C400008008BD0000000048040020EC0A00087C
:1001D40080B483B000AF7860084611461A460346DF
:1001E400FB700B46BB7013467B70204B1A6B7B78FD
:1001F400012101FA03F31D4913430B63BB78002B60
:1002040016D07B681A68FB785B00012101FA03F3BE
:100214001A437B681A607B681A68FB785B000133B9
:10022400012101FA03F3DB431A407B681A6016E0EC
:100234007B681A68FB785B00012101FA03F3DB4356
:100244001A407B681A607B681A68FB785B0001338C
:10025400012101FA03F3DB431A407B681A6000BFF3
:100264000C37BD465DF8047B704700BF0038024080
:1002740080B483B000AF78600B46FB701346BB704C
:100284007B681A68FB785B00012101FA03F31340D1
:10029400002B18D0BB78002B09D07B685A69FB78F7
:1002A400012101FA03F31A437B685A6109E07B6870
:1002B4005A69FB78012101FA03F3DB431A407B6896
:1002C4005A61002300E0012318460C37BD465DF84F
:1002D400047B704780B485B000AF78600B46FB7038
:1002E4000023FB737B681B69DAB2FB78012101FAF6
:1002F40003F3DBB21340FB73FB7B18461437BD4694
:100304005DF8047B7047000080B582B000AF002325
:100314007B600BE0124A7B681344197801230022A6
:100324001048FFF755FF7B6801337B607B68032B24
:10033400F0DD00233B600BE00B4A3B681344197863
:10034400012301220748FFF743FF3B6801333B6069
:100354003B68022BF0DD00BF0837BD4680BD00BFFF
:1003640000000020000402400400002080B582B098
:1003740000AF0023BB7140E0BB790022194622483C
:10038400FFF776FF0323FB712BE0FB7919461E4828
:10039400FFF7A0FF0346002B20D100233B6002E0BF
:1003A4003B6801333B603B6847F22F529342F7D9D5
:1003B400FB7919461448FFF78DFF0346002B0DD136
:1003C400FB79DA1EB979114813465B0013440344E0
:1003D4000B441A780E4B1A7000F028F8FB7901339D
:1003E400FB71FB79062BD0D9BB790122194606484B
:1003F400FFF73EFFBB790133BB71BB79022BBBD93D
:1004040000BF0837BD4680BD00040240080000203C
:100414006004002080B400AF034B1B781846BD462F
:100424005DF8047B704700BF6004002080B500AF16
:10043400FFF7F0FF0346092B00F2808101A252F876
:1004440023F000BF71040008B90400080105000886
:100454004905000891050008D9050008210600088F
:1004640069060008B1060008F90600080122012106
:10047400B348FFF7FDFE01220221B148FFF7F8FE61
:1004840001220321AE48FFF7F3FE01220421AC4808
:10049400FFF7EEFE01220521A948FFF7E9FE01223C
:1004A4000621A748FFF7E4FE00220721A448FFF72E
:1004B400DFFE43E100220121A148FFF7D9FE01221A
:1004C40002219F48FFF7D4FE012203219C48FFF735
:1004D400CFFE002204219A48FFF7CAFE002205211C
:1004E4009748FFF7C5FE002206219548FFF7C0FE96
:1004F400002207219248FFF7BBFE1FE101220121E0
:100504008F48FFF7B5FE012202218D48FFF7B0FEA8
:10051400002203218A48FFF7ABFE01220421884808
:10052400FFF7A6FE012205218548FFF7A1FE002260
:1005340006218348FFF79CFE012207218048FFF72C
:1005440097FEFBE0012201217D48FFF791FE012285
:1005540002217B48FFF78CFE012203217848FFF734
:1005640087FE012204217648FFF782FE002205213E
:100574007348FFF77DFE002206217148FFF778FEDD
:10058400012207216E48FFF773FED7E00022012104
:100594006B48FFF76DFE012202216948FFF768FEF0
:1005A400012203216648FFF763FE00220421644808
:1005B400FFF75EFE002205216148FFF759FE012284
:1005C40006215F48FFF754FE012207215C48FFF72C
:1005D4004FFEB3E0012201215948FFF749FE0022F2
:1005E40002215748FFF744FE012203215448FFF734
:1005F4003FFE012204215248FFF73AFE0022052162
:100604004F48FFF735FE012206214D48FFF730FE23
:10061400012207214A48FFF72BFE8FE00122012126
:100624004748FFF725FE002202214548FFF720FE38
:10063400012203214248FFF71BFE01220421404806
:10064400FFF716FE012205213D48FFF711FE0122A6
:1006540006213B48FFF70CFE012207213848FFF72B
:1006640007FE6BE0012201213548FFF701FE01225C
:1006740002213348FFF7FCFD012203213048FFF734
:10068400F7FD002204212E48FFF7F2FD0022052188
:100694002B48FFF7EDFD002206212948FFF7E8FD6E
:1006A400002207212648FFF7E3FD47E0012201214C
:1006B4002348FFF7DDFD012202212148FFF7D8FD81
:1006C400012203211E48FFF7D3FD012204211C4807
:1006D400FFF7CEFD012205211948FFF7C9FD0122CC
:1006E40006211748FFF7C4FD012207211448FFF72C
:1006F400BFFD23E0012201211148FFF7B9FD0122CA
:1007040002210F48FFF7B4FD012203210C48FFF733
:10071400AFFD002204210A48FFF7AAFD00220521AB
:100724000748FFF7A5FD012206210548FFF7A0FDB4
:10073400012207210248FFF79BFD00BF00BF80BDD7
:100744000000024080B582B000AF002301220121E5
:100754001E48FFF73DFD0023012202211B48FFF73D
:1007640037FD0023012203211848FFF731FD002340
:10077400012204211548FFF72BFD00230122052146
:100784001248FFF725FD0023012206210F48FFF739
:100794001FFD0023012207210C48FFF719FD002348
:1007A400002200210948FFF713FDFFF7ADFDFFF715
:1007B400DDFD00237B6002E07B6801337B607B68A6
:1007C4004CF24F329342F7D9F1E700BF00000240E8
:1007D40080B500AF164BD3F88830154A43F4700344
:1007E400C2F88830134B1B68124A43F001031360AC
:1007F400104B00229A600F4B1B680E4A23F084733F
:1008040023F4803313600B4B0B4A5A60094B1B686B
:10081400084A23F480231360064B0022DA6000F0B8
:100824000DF8034B4FF000629A6000BF80BD00BF1B
:1008340000ED00E0003802401030002480B483B0A2
:1008440000AF00237B6000233B60354B1B68344AB8
:1008540043F480331360324B1B6803F400333B6072
:100864007B6801337B603B68002B03D17B68B3F565
:10087400A04FF0D12A4B1B6803F40033002B02D0A5
:1008840001233B6001E000233B603B68012B40D126
:10089400234B1B6C224A43F080531364214B1B6887
:1008A400204A43F4404313601D4B1D4A9B689360E8
:1008B4001B4B1B4A9B689360194B9B68184A43F473
:1008C40080539360164B184A5A60154B1B68144AA0
:1008D40043F08073136000BF114B1B6803F0007377
:1008E400002BF9D0114B40F202721A600C4B9B683A
:1008F4000B4A23F003039360094B9B68084A43F0B7
:100904000203936000BF064B9B6803F00C03082BA3
:10091400F9D100BF0C37BD465DF8047B704700BFBA
:10092400003802400070004019544107003C024066
:100934000D4885460D480E490E4A002302E0D4585E
:10094400C4500433C4188C42F9D30B4A0B4C002313
:1009540001E013600432A242FBD3FFF739FF00F039
:1009640011F8FFF7EFFEFEE7000001200000002071
:1009740044040020140B00084404002088040020D0
:10098400FEE7000070B50D4E0D4D761BB61006D077
:100994000024013455F8043B9847A642F9D1094E86
:1009A400094D761B00F0A0F8B61006D000240134DF
:1009B40055F8043B9847A642F9D170BD080B0008CE
:1009C400080B0008100B0008080B0008024B13B1B9
:1009D400024800F005B8704700000000F109000863
:1009E400002301461A46184600F01EB838B50A4CD2
:1009F4000A4D641BA4100AD004F18043013B05EBAB
:100A04008305013C55F804399847002CF9D1BDE819
:100A1400384000F06FB800BF140B0008100B00083A
:100A2400704700BF704700BF2DE9F8432B4D0646C1
:100A3400286898460F469146FFF7F2FF284B1C683A
:100A4400D4F84831002B3DD05A681F2A0DDC02F13E
:100A5400010C16BB0232C3F804C0286843F82270A4
:100A6400FFF7E0FF0020BDE8F8831E4B7BB34FF493
:100A7400C870AFF30080034648B3D4F8482100217E
:100A8400C0E900214FF0010CC4F848010A46C0F83F
:100A94008811C0F88C11002EDCD003EB82010124F4
:100AA400C1F88890D3F8880194402043022EC3F8FB
:100AB4008801C1F80881CDD1D3F88C110C43C3F857
:100AC4008C41C7E704F5A673C4F84831BCE728682D
:100AD400FFF7A8FF4FF0FF30C5E700BF4004002038
:100AE400040B000800000000F8B500BFF8BC08BC07
:100AF4009E467047F8B500BFF8BC08BC9E467047D8
:040B040018000020B5
:080B0800D1090008B901000841
:040B10009501000843
:100B14000304050600010200010203040506070898
:100B2400092A002300000000000000000403002044
:100B34006C030020D403002000000000000000002B
:100B440000000000000000000000000000000000A1
:100B54000000000000000000000000000000000091
:100B64000000000000000000000000000000000081
:100B74000000000000000000000000000000000071
:100B84000000000000000000000000000000000061
:100B94000000000000000000000000000000000051
:100BA4000000000000000000000000000000000041
:100BB4000000000000000000000000000000000031
:100BC4000000000000000000000000000000000021
:100BD40001000000000000000E33CDAB34126DE6BE
:100BE400ECDE05000B000000000000000000000027
:100BF40000000000000000000000000000000000F1
:100C040000000000000000000000000000000000E0
:100C140000000000000000000000000000000000D0
:100C240000000000000000000000000000000000C0
:040F54006404002011
:0400000508000935B1
:00000001FF
