:020000040800F2
:1000000000000120F508000845090008450900081E
:1000100045090008450900084509000800000000DE
:10002000000000000000000000000000450900087A
:1000300045090008000000004509000845090008BE
:1000400000000000450900084509000845090008AE
:100050004509000845090008310400083D0400086E
:10006000450900084509000845090008000000008E
:100070000000000000000000000000000000000080
:10008000000000000000000045090008000000001A
:10009000000000000000000000000000450900080A
:1000A00045090008450900084509000845090008F8
:1000B000450900084509000800000000450900083E
:1000C00045090008450900084509000845090008D8
:1000D00045090008000000000000000000000000CA
:1000E000450900084509000845090008000000000E
:1000F0000000000000000000000000000000000000
:100100000000000045090008000000004509000843
:1001100000000000000000000000000000000000DF
:1001200000000000000000000000000000000000CF
:1001300000000000000000000000000000000000BF
:100140000000000000000000000000004509000859
:10015000000000000000000000000000000000009F
:1001600045090008450900080000000000000000E3
:10017000000000000000000000000000000000007F
:100180000000000045090008000000000000000019
:040190004509000815
:1001940010B5054C237833B9044B13B10448AFF3BD
:1001A40000800123237010BD3404002000000000EF
:1001B400AC0A000808B5034B1BB103490348AFF36D
:1001C400008008BD0000000038040020AC0A0008CC
:1001D40080B483B000AF7860084611461A460346DF
:1001E400FB700B46BB7013467B70204B1A6B7B78FD
:1001F400012101FA03F31D4913430B63BB78002B60
:1002040016D07B681A68FB785B00012101FA03F3BE
:100214001A437B681A607B681A68FB785B000133B9
:10022400012101FA03F3DB431A407B681A6016E0EC
:100234007B681A68FB785B00012101FA03F3DB4356
:100244001A407B681A607B681A68FB785B0001338C
:10025400012101FA03F3DB431A407B681A6000BFF3
:100264000C37BD465DF8047B704700BF0038024080
:1002740080B483B000AF78600B46FB701346BB704C
:100284007B681A68FB785B00012101FA03F31340D1
:10029400002B18D0BB78002B09D07B685A69FB78F7
:1002A400012101FA03F31A437B685A6109E07B6870
:1002B4005A69FB78012101FA03F3DB431A407B6896
:1002C4005A61002300E0012318460C37BD465DF84F
:1002D400047B704780B500AF0123002200213B4816
:1002E400FFF776FF0123002201213848FFF770FF52
:1002F400364BDB68354A43F00103D360334BDB688C
:10030400324A43F00203D360002301220021304823
:10031400FFF75EFF0023012201212D48FFF758FF5C
:100324000023012202212A48FFF752FF0023012261
:1003340003212748FFF74CFF00230122042124480E
:10034400FFF746FF0023012205212148FFF740FF64
:100354000023012206211E48FFF73AFF1D4B5B6C68
:100364001C4A43F4804353641B4B9B681A4A43F072
:1003740001039360184B9B68174A43F01003936082
:10038400164B1B68154A43F001031360134B1B689B
:10039400124A43F002031360104BDB680F4A43F028
:1003A4000103D3600D4BDB680C4A43F00203D360B6
:1003B4000B4B1B680A4A43F040031360084B1B684D
:1003C400074A43F080031360FEE700BF00040240C5
:1003D400000002400038024000380140003C014067
:1003E40000E100E080B500AF064B93F90030DBB2CA
:1003F4000133DBB25AB2034B1A7000F023F800BF8A
:1004040080BD00BF0000002080B500AF064B93F90B
:100414000030DBB2013BDBB25AB2034B1A7000F07E
:1004240011F800BF80BD00BF0000002080B500AF00
:10043400FFF7D8FF00BF80BD80B500AFFFF7E4FF32
:1004440000BF80BD80B500AFB84B93F90030002BDE
:1004540023D101220021B648FFF70AFF012201211E
:10046400B348FFF705FF01220221B148FFF700FF5F
:1004740001220321AE48FFF7FBFE01220421AC4810
:10048400FFF7F6FE01220521A948FFF7F1FE00223D
:100494000621A748FFF7ECFE74E1A44B93F9003062
:1004A400012B23D100220021A148FFF7E1FE012204
:1004B40001219F48FFF7DCFE012202219C48FFF73F
:1004C400D7FE002203219A48FFF7D2FE002204211E
:1004D4009748FFF7CDFE002205219548FFF7C8FE97
:1004E400002206219248FFF7C3FE4BE18F4B93F99C
:1004F4000030022B23D1012200218D48FFF7B8FEE2
:10050400012201218A48FFF7B3FE00220221884814
:10051400FFF7AEFE012203218548FFF7A9FE012261
:1005240004218348FFF7A4FE002205218048FFF739
:100534009FFE012206217E48FFF79AFE22E17B4BB3
:1005440093F90030032B23D1012200217848FFF7CF
:100554008FFE012201217648FFF78AFE0122022143
:100564007348FFF785FE012203217148FFF780FEDF
:10057400002204216E48FFF77BFE002205216C480F
:10058400FFF776FE012206216948FFF771FEF9E0C4
:10059400664B93F90030042B23D1002200216448D8
:1005A400FFF766FE012201216148FFF761FE012287
:1005B40002215F48FFF75CFE002203215C48FFF73D
:1005C40057FE002204215A48FFF752FE012205215A
:1005D4005748FFF74DFE012206215548FFF748FE14
:1005E400D0E0524B93F90030052B23D10122002196
:1005F4004F48FFF73DFE002201214D48FFF738FE2A
:10060400012202214A48FFF733FE01220321484810
:10061400FFF72EFE002204214548FFF729FE0122A0
:1006240005214348FFF724FE012206214048FFF735
:100634001FFEA7E03D4B93F90030062B23D1012286
:1006440000213B48FFF714FE002201213848FFF740
:100654000FFE012202213648FFF70AFE0122032180
:100664003348FFF705FE012204213148FFF700FE5D
:10067400012205212E48FFF7FBFD012206212C480B
:10068400FFF7F6FD7EE0294B93F90030072B23D1C9
:10069400012200212648FFF7EBFD01220121244815
:1006A400FFF7E6FD012202212148FFF7E1FD0022C8
:1006B40003211F48FFF7DCFD002204211C48FFF73B
:1006C400D7FD012205211A48FFF7D2FD0022062199
:1006D4001748FFF7CDFD55E0144B93F90030082B74
:1006E40028D1012200211248FFF7C2FD0122012175
:1006F4000F48FFF7BDFD012202210D48FFF7B8FDA9
:10070400012203210A48FFF7B3FD0122042108480E
:10071400FFF7AEFD012205210548FFF7A9FD0122DF
:1007240006210348FFF7A4FD2CE000BF00000020D1
:1007340000000240144B93F90030092B22D101220E
:1007440000211248FFF794FD012201210F48FFF711
:100754008FFD012202210D48FFF78AFD01220321AA
:100764000A48FFF785FD002204210848FFF780FDB1
:10077400012205210548FFF77BFD012206210348DC
:10078400FFF776FD00BF80BD00000020000002409E
:1007940080B500AF164BD3F88830154A43F4700384
:1007A400C2F88830134B1B68124A43F001031360EC
:1007B400104B00229A600F4B1B680E4A23F084737F
:1007C40023F4803313600B4B0B4A5A60094B1B68AC
:1007D400084A23F480231360064B0022DA6000F0F9
:1007E4000DF8034B4FF000629A6000BF80BD00BF5C
:1007F40000ED00E0003802401030002480B483B0E3
:1008040000AF00237B6000233B60354B1B68344AF8
:1008140043F480331360324B1B6803F400333B60B2
:100824007B6801337B603B68002B03D17B68B3F5A5
:10083400A04FF0D12A4B1B6803F40033002B02D0E5
:1008440001233B6001E000233B603B68012B40D166
:10085400234B1B6C224A43F080531364214B1B68C7
:10086400204A43F4404313601D4B1D4A9B68936028
:100874001B4B1B4A9B689360194B9B68184A43F4B3
:1008840080539360164B184A5A60154B1B68144AE0
:1008940043F08073136000BF114B1B6803F00073B7
:1008A400002BF9D0114B40F202721A600C4B9B687A
:1008B4000B4A23F003039360094B9B68084A43F0F7
:1008C4000203936000BF064B9B6803F00C03082BE4
:1008D400F9D100BF0C37BD465DF8047B704700BFFB
:1008E400003802400070004019544107003C0240A7
:1008F4000D4885460D480E490E4A002302E0D4589F
:10090400C4500433C4188C42F9D30B4A0B4C002353
:1009140001E013600432A242FBD3FFF739FF00F079
:1009240011F8FFF7D7FCFEE70000012000000020CB
:1009340034040020D40A0008340400207404002085
:10094400FEE7000070B50D4E0D4D761BB61006D0B7
:100954000024013455F8043B9847A642F9D1094EC6
:10096400094D761B00F0A0F8B61006D0002401341F
:1009740055F8043B9847A642F9D170BDC80A00084F
:10098400C80A0008D00A0008C80A0008024B13B1BC
:10099400024800F005B8704700000000B1090008E3
:1009A400002301461A46184600F01EB838B50A4C12
:1009B4000A4D641BA4100AD004F18043013B05EBEB
:1009C4008305013C55F804399847002CF9D1BDE85A
:1009D400384000F06FB800BFD40A0008D00A0008FD
:1009E400704700BF704700BF2DE9F8432B4D064602
:1009F400286898460F469146FFF7F2FF284B1C687B
:100A0400D4F84831002B3DD05A681F2A0DDC02F17E
:100A1400010C16BB0232C3F804C0286843F82270E4
:100A2400FFF7E0FF0020BDE8F8831E4B7BB34FF4D3
:100A3400C870AFF30080034648B3D4F848210021BE
:100A4400C0E900214FF0010CC4F848010A46C0F87F
:100A54008811C0F88C11002EDCD003EB8201012434
:100A6400C1F88890D3F8880194402043022EC3F83B
:100A74008801C1F80881CDD1D3F88C110C43C3F897
:100A84008C41C7E704F5A673C4F84831BCE728686D
:100A9400FFF7A8FF4FF0FF30C5E700BF3004002088
:100AA400C40A000800000000F8B500BFF8BC08BC88
:100AB4009E467047F8B500BFF8BC08BC9E46704718
:040AC4000800002006
:080AC80091090008B9010008C2
:040AD0009501000884
:100AD400FF0000000000000000000000F4020020FD
:100AE4005C030020C403002000000000000000009C
:100AF40000000000000000000000000000000000F2
:100B040000000000000000000000000000000000E1
:100B140000000000000000000000000000000000D1
:100B240000000000000000000000000000000000C1
:100B340000000000000000000000000000000000B1
:100B440000000000000000000000000000000000A1
:100B54000000000000000000000000000000000091
:100B64000000000000000000000000000000000081
:100B74000000000000000000000000000000000071
:100B840001000000000000000E33CDAB34126DE60E
:100B9400ECDE05000B000000000000000000000077
:100BA4000000000000000000000000000000000041
:100BB4000000000000000000000000000000000031
:100BC4000000000000000000000000000000000021
:100BD4000000000000000000000000000000000011
:040F04005004002075
:04000005080008F5F2
:00000001FF
