:020000040800F2
:1000000000000120090A0008590A0008590A0008DE
:10001000590A0008590A0008590A0008000000009F
:10002000000000000000000000000000590A000865
:10003000590A000800000000590A0008590A00087F
:1000400000000000590A0008590A0008590A00086F
:10005000590A0008590A0008590A0008590A0008F4
:10006000590A0008590A0008590A0008000000004F
:100070000000000000000000000000000000000080
:10008000000000000000000031080008000000002F
:10009000000000000000000000000000590A0008F5
:1000A000590A0008590A0008590A0008590A0008A4
:1000B000590A0008590A000800000000590A0008FF
:1000C000590A0008590A0008590A0008590A000884
:1000D000590A0008000000000000000000000000B5
:1000E000590A0008590A0008590A000800000000CF
:1000F0000000000000000000000000000000000000
:1001000000000000590A000800000000590A000819
:1001100000000000000000000000000000000000DF
:1001200000000000000000000000000000000000CF
:1001300000000000000000000000000000000000BF
:10014000000000000000000000000000590A000844
:10015000000000000000000000000000000000009F
:10016000590A0008590A00080000000000000000B9
:10017000000000000000000000000000000000007F
:1001800000000000590A0008000000000000000004
:04019000590A000800
:1001940010B5054C237833B9044B13B10448AFF3BD
:1001A40000800123237010BD4408002000000000DB
:1001B400A414000808B5034B1BB103490348AFF36B
:1001C400008008BD0000000048080020A4140008B6
:1001D40080B582B000AF002301220021154800F051
:1001E40051FA002301220121124800F04BFA0023A6
:1001F400012202210F4800F045FA03237B6009E045
:100204007B68D9B2002301220A4800F03BFA7B68DC
:1002140001337B607B680A2BF2DD382000F00CF898
:100224000C2000F009F8012000F006F800BF0837A0
:10023400BD4680BD0004024080B588B000AF0346CF
:10024400FB7100220121334800F06CFA00220021E6
:10025400304800F067FA0023FB6102E0FB690133D8
:10026400FB61FB6941F287329342F7DD0023BB61F6
:1002740002E0BB690133BB61BB6941F2873293423F
:10028400F7DD01220221234800F04CFA00237B61B0
:1002940002E07B6901337B617B6941F287329342DF
:1002A400F7DD03233B6113E03B69D9B23B69033BB0
:1002B400012202FA03F35AB297F9073013405BB2F2
:1002C400DBB21A46134800F02DFA3B6901333B6157
:1002D4003B690A2BE8DD0023FB6002E0FB68013385
:1002E400FB60FB6841F287329342F7DD0022022172
:1002F400084800F017FA0023BB6002E0BB68013332
:10030400BB60BB6841F287329342F7DD00BF203700
:10031400BD4680BD0004024080B588B000AF0346EE
:10032400FB71002201212E4800F0FCF9012200217A
:100334002B4800F0F7F90023FB6102E0FB6901336D
:10034400FB61FB6941F287329342F7DD012202210E
:10035400234800F0E7F90023BB6102E0BB690133E5
:10036400BB61BB6941F287329342F7DD03237B61B2
:1003740013E07B69D9B27B69033B012202FA03F3E0
:100384005AB297F9073013405BB2DBB21A461448ED
:1003940000F0C8F97B6901337B617B690A2BE8DDD6
:1003A40000233B6102E03B6901333B613B6941F25D
:1003B40087329342F7DD00220221094800F0B2F9A6
:1003C4000023FB6002E0FB680133FB60FB6841F241
:1003D40087329342F7DD00BF2037BD4680BD00BFA2
:1003E4000004024080B584B000AF78600023FB7342
:1003F40009E0FB7B7A6813441B781846FFF78CFFEF
:10040400FB7B0133FB73FB7B7A6813441B78002B63
:10041400EFD100BF1037BD4680BD000080B584B069
:1004240000AF03460A46FB711346BB71FB79032BED
:1004340019D801A252F823F04D040008530400080F
:100444005B04000863040008BB79FB600BE0BB7924
:100454004033FB6007E0BB791033FB6003E0BB79FA
:100464005033FB6000BFFB68DBB263F07F03DBB299
:100474001846FFF7E1FE00BF1037BD4680BD00BF40
:1004840080B586B000AF78607B6807F108010A2266
:10049400184600F027FB07F108031846FFF7A2FFF0
:1004A40000BF1837BD4680BD80B400AF234B1B6B23
:1004B400224A43F001031363214B1B68204A43F093
:1004C400010313601E4B1B681D4A43F002031360B3
:1004D4001B4BDB681A4A23F00103D360184BDB681B
:1004E400174A23F00203D360144B5B6C134A43F4A2
:1004F40080735364134B9B68124A43F00103936067
:10050400104B1B690F4A23F0010313610E4B1B6848
:100514000D4A43F4802313600C4B5B680B4A23F4AD
:1005240040335360074B9B68064A23F4006393608F
:1005340000BFBD465DF8047B704700BF0038024031
:10054400000002400020014000E100E000230140DF
:1005540080B483B000AF78600F4B5A687B681B6827
:100564000D4913434B600C4B9B687A681279114612
:10057400094A0B4393607B68D3ED027AFCEEE77A79
:10058400C7ED007A3B68DAB2044B1A7000BF0C372F
:10059400BD465DF8047B704700200140AE08002092
:1005A40080B483B000AF0346FB710C4B5A6BFB79EC
:1005B4000A4913434B63094B5B68084A23F0200341
:1005C4005360064B9B68054A43F08043936000BF29
:1005D4000C37BD465DF8047B704700BF0020014026
:1005E40080B483B000AF7860094B1B6803F002034A
:1005F400022B03D17B6801221A7002E07B6800227F
:100604001A7000BF0C37BD465DF8047B704700BF0D
:100614000020014080B582B000AF78601548FFF734
:10062400DFFF144B1B78002B1ED0134BDB6C07EE43
:10063400903AF8EE677ADFED116A87EEA67A104BEE
:100644001B781A46962303FB02F307EE903AF8EE62
:10065400E77A67EE277AFCEEE77A17EE903A9AB2D9
:100664007B681A80002300E0012318460837BD4642
:1006740080BD00BFB20800200020014000F07F458B
:10068400AD08002080B483B000AF786008461146FE
:100694001A460346FB700B46BB7013467B70204B17
:1006A4001A6B7B78012101FA03F31D4913430B6391
:1006B400BB78002B16D07B681A68FB785B0001219D
:1006C40001FA03F31A437B681A607B681A68FB78A3
:1006D4005B000133012101FA03F3DB431A407B6819
:1006E4001A6016E07B681A68FB785B00012101FA46
:1006F40003F3DB431A407B681A607B681A68FB7853
:100704005B000133012101FA03F3DB431A407B68E8
:100714001A6000BF0C37BD465DF8047B704700BF0C
:100724000038024080B483B000AF78600B46FB70A1
:100734001346BB707B681A68FB785B00012101FAE1
:1007440003F31340002B18D0BB78002B09D07B682F
:100754005A69FB78012101FA03F31A437B685A6151
:1007640009E07B685A69FB78012101FA03F3DB4352
:100774001A407B685A61002300E0012318460C37B5
:10078400BD465DF8047B704780B582B000AF0C2095
:1007940000F0AAF903463B601F4B01221A70FFF7D1
:1007A40083FE3868FFF7D4FEFFF712FD1B48FFF7FE
:1007B40019FE0020FFF7F4FE00237B6002E07B6853
:1007C40001337B607B6842F20F729342F7DD144879
:1007D400FFF720FF03461A46124B1A70114B1B7881
:1007E400002B0BD10E210020FFF718FE0C4B1B88A9
:1007F4001846FFF745FE0B4B01221A700A4B9B6803
:1008040003F00203002BE2D1074B9B68064A43F036
:1008140080439360DBE700BFB2080020BC140008EB
:10082400B0080020AC0800200020014080B500AFD3
:100834000448FFF7EFFE03461A46034B1A7000BF45
:1008440080BD00BFB0080020AC08002080B584B093
:1008540000AF7860114B1B68002B02D10F4B104A7C
:100864001A600E4B1B68FB600C4B1A687B681344C0
:100874006A46934207D900F0EFF802460C2313604E
:100884004FF0FF3306E0054B1A687B681344034AB4
:100894001360FB6818461037BD4680BD640800200D
:1008A400E008002080B500AF164BD3F88830154A15
:1008B40043F47003C2F88830134B1B68124A43F0A8
:1008C40001031360104B00229A600F4B1B680E4A01
:1008D40023F0847323F4803313600B4B0B4A5A6068
:1008E400094B1B68084A23F480231360064B00223B
:1008F400DA6000F00DF8034B4FF000629A6000BF1D
:1009040080BD00BF00ED00E000380240103000243C
:1009140080B483B000AF00237B6000233B60354B81
:100924001B68344A43F480331360324B1B6803F46E
:1009340000333B607B6801337B603B68002B03D151
:100944007B68B3F5A04FF0D12A4B1B6803F4003346
:10095400002B02D001233B6001E000233B603B6895
:10096400012B40D1234B1B6C224A43F08053136468
:10097400214B1B68204A43F4404313601D4B1D4A1E
:100984009B6893601B4B1B4A9B689360194B9B6845
:10099400184A43F480539360164B184A5A60154B17
:1009A4001B68144A43F08073136000BF114B1B682B
:1009B40003F00073002BF9D0114B40F202721A605D
:1009C4000C4B9B680B4A23F003039360094B9B6811
:1009D400084A43F00203936000BF064B9B6803F090
:1009E4000C03082BF9D100BF0C37BD465DF8047B1E
:1009F400704700BF0038024000700040195441079E
:100A0400003C02400D4885460D480E490E4A00231D
:100A140002E0D458C4500433C4188C42F9D30B4AAE
:100A24000B4C002301E013600432A242FBD3FFF716
:100A340039FF00F017F8FFF7A7FEFEE700000120DA
:100A44000000002044080020041500084408002089
:100A5400DC080020FEE70000014B1868704700BF67
:100A64000000002070B50D4E0D4D761BB61006D05B
:100A74000024013455F8043B9847A642F9D1094EA5
:100A8400094D761B00F00CFDB61006D0002401348D
:100A940055F8043B9847A642F9D170BDF8140008F4
:100AA400F814000800150008F8140008931E222BFF
:100AB40015D80A2A10B50B4605D00C46194600F085
:100AC400DDFA204610BD0028F7DA2D2403F8014B87
:100AD40040420C46194600F0D1FA204610BD0020D1
:100AE40008707047FFF7E2BF024B0146186800F038
:100AF40003B800BF000000202DE9F04F01F10B0501
:100B0400162D83B0064623D8102900F2B98000F0D0
:100B140097FA102518230220C54F3B44A3F108027D
:100B24005C68944200F06681636823F00303234405
:100B3400D4E902515A68E96042F001028D603046FE
:100B44005A6000F083FA0834204603B0BDE8F08F01
:100B540035F0070500F19480A94200F2918000F07D
:100B64006FFAB5F5FC7FC0F083816B0A00F08F80CB
:100B7400042B00F24681AB0903F1390003F1380C70
:100B8400C300AB4F3B44A3F108015C68A14206D10A
:100B94000CE0002A80F21D81E468A14206D063685B
:100BA40023F003035A1B0F2AF3DD60463C69DFF888
:100BB40094C2644571D0636823F003035A1B0F2A5F
:100BC40000F34481002AC7E904CC80F22681B3F5FE
:100BD400007F80F06981DB08591C7A6857F83180FE
:100BE400C4F808804FF0010E9B100EFA03F307EBD4
:100BF400C10E1343AEF10802E2607B6047F8314056
:100C0400C8F80C408210012494409C424BD81C42EA
:100C140006D120F0030064001C4200F10400FAD065
:100C240007EBC009CE468046DEF80C309E4507D15E
:100C340022E1002A80F22981DB689E4500F01C81B4
:100C4400596821F003014A1B0F2AF2DDD3E9028E11
:100C54005C1945F001055D6042F00105C8F80CE03F
:100C64003046CEF80880C7E90444C4E902CC656084
:100C74005A50019300F0EAF9019B03F1080463E779
:100C840000240C232046336003B0BDE8F08F4FF4FA
:100C9400007340204FF03F0C73E77B6882100124FF
:100CA40094409C42B3D9BC68636823F00309A94506
:100CB40003D3A9EB05030F2B7BDC5E4BDFF888A184
:100CC4001A68DAF80030013305EB020800F04881B5
:100CD40008F5805808F10F0828F47F6828F00F08F9
:100CE4004146304600F0B8F9B0F1FF3F834600F0CA
:100CF400048104EB0900584500F2FD804E4A136854
:100D04004344136000F04D81DAF8001001311BBF39
:100D1400ABEB00001B18CAF800B013601BF007030C
:100D240000F03481C3F10801C3F580538B440833C8
:100D3400D844C8F30B08A3EB080841463046019297
:100D440000F08AF9431C019A00F04681A0EB0B01E4
:100D5400414441F001011368C7F808B04344BC4260
:100D6400CBF80410136015D0B9F10F0F40F23081A5
:100D74006068A9F10C0121F0070100F0010004EB07
:100D8400010C08434FF0050E0F296060CCE901EE19
:100D940000F23A81294A2A481168BC688B420168EA
:100DA40088BF136062688B4222F0030288BF03602D
:100DB400A7E0621943F0010345F001056560304680
:100DC400BA60536000F042F90834204603B0BDE82D
:100DD400F08F2344E1685A68A56842F00102E96093
:100DE40030468D605A6000F031F90834204603B073
:100DF400BDE8F08FDC68A34208BF02303FF4D6AEF2
:100E040092E6142B71D9542B00F2AD802B0B03F115
:100E14006F0003F16E0CC300B3E6234430465A68F6
:100E240042F001025A60083400F010F98CE600BF69
:100E34003004002098080020680800209008002052
:100E4400940800203804002038080020611945F077
:100E5400010E42F00105C4F804E03046C7E904116C
:100E6400C1E902CC4D60E25000F0F0F808346BE6C2
:100E7400E80805F108034FE608F1010818F0030F2C
:100E84000EF1080E7FF4D0AE52E019441C464A68B5
:100E9400DB6854F8085F42F001024A603046EB60B8
:100EA4009D6000F0D3F84FE65A0A042A35D9142A73
:100EB4006FD802F15C01C9005B3207EB010E79586F
:100EC400AEF1080E8E4558D04A6822F003029A42C9
:100ED40002D989688E45F7D1D1F80CE07B68C4E962
:100EE400021ECEF80840CC608CE603F15C0003F1EE
:100EF4005B0CC30045E6BC4272D0BC68626822F059
:100F040003029542A2EB050302D80F2B3FF751AF22
:100F1400304600F09BF8002416E69A0902F13901E4
:100F2400C9003832C9E7D9F80090994540F0838068
:100F340010F0030FA9F1080300F1FF30F3D17B682F
:100F440023EA04037B6064009C423FF6ACAE1CB908
:100F5400A9E6640008F104081C42FAD040465FE6A2
:100F640008F11008BCE6B3F5AA7F26D8EB0B03F111
:100F7400780003F1770CC30003E67B6892104FF00E
:100F8400010808FA02F213437B60A8E74FF4805388
:100F9400CEE6542A29D81A0B02F16F01C9006E3229
:100FA4008BE7C0F30B0100297FF4AEAE09EB080216
:100FB400B96842F001024A60ECE640F254529342AE
:100FC4001CD8AB0C03F17D0003F17C0CC300D8E505
:100FD4000123CBF804309BE701214FF00008BAE667
:100FE400164A1368434413608EE6B2F5AA7F14D8F8
:100FF400DA0B02F17801C90077325EE74FF47E73B1
:101004007F204FF07E0CBCE504F1080130460192CC
:1010140000F0EEF8019A1368BCE640F254518A429B
:1010240005D89A0C02F17D01C9007C3245E74FF4E2
:101034007E717E2241E77B6885E700BF6808002057
:10104400014800F0C9B900BFC4080020014800F0FD
:10105400C5B900BFC408002038B5074C00230546B5
:1010640008462360FFF7F2FB431C00D038BD236819
:10107400002BFBD02B6038BDD8080020F0B4DFF87B
:1010840078C0174604460E46BCE80F008AB06D4689
:101094000FC5BCE80F000FC59CE80300BB1E45F854
:1010A400040B222B297023D8751E2846002200E049
:1010B4001A46B4FBF7F10AAB07FB114423440C4670
:1010C40013F8283C00F8013F531C0029F0D1F154D7
:1010D40052B1334413F8011D15F8010F297001347E
:1010E400111B8C421870F5DB30460AB0F0BC704717
:1010F40000203070F9E700BFD0140008024B13B190
:10110400024800F005B870470000000021110008F3
:10111400002301461A46184600F062B938B50A4C55
:101124000A4D641BA4100AD004F18043013B05EB73
:101134008305013C55F804399847002CF9D1BDE8E2
:10114400384000F0B3B900BF0415000800150008CA
:10115400F8B5244F0C460646FFF772FFBB685D687E
:10116400C4F57E610F3125F00305294421F47F6124
:1011740021F00F01A1F58054B4F5805F07DB002155
:101184003046FFF769FFBB682B44984204D03046D1
:10119400FFF75CFF0020F8BD61423046FFF75CFFBB
:1011A40001300DD0104BBA6819682D1B45F00105AC
:1011B4003046091B55601960FFF748FF0120F8BD50
:1011C40000213046FFF748FFBA68831A0F2BDEDD93
:1011D400064C0549246843F00103001B5360086072
:1011E400D5E700BF3004002068080020380800203C
:1011F400002953D0F8B50C460646FFF721FF54F8F2
:1012040004CC714F2CF00101A4F108056B18B868E7
:101214005A68984222F0030253D01CF0010F5A601E
:1012240003EB02003BD154F808CC4068A5EB0C0555
:1012340007F1080EAC687445614400F0010075D0F4
:10124400D5F80CC0C4F80CC0CCF8084060B341F029
:1012540001036B606950B1F5007F50D34B0A042B36
:1012640070D88B0903F13904E40003F1380238190A
:101274003B590838984278D05A6822F003028A42CF
:1012840071D99B689842F7D1C368C5E902039D6090
:10129400C5603046BDE8F840FFF7D8BE70474068E7
:1012A40000F001000028D2D19868484C1144A042B3
:1012B40041F0010262D0DB68C36098606A606950E3
:1012C400C9E71CF0010F0A4407D154F8083CED1A91
:1012D4001A44D5E90213CB6099603D4B1B6842F078
:1012E400010193426960BD6004D83A4B30461968E5
:1012F400FFF72EFF3046BDE8F840FFF7A7BEC90848
:1013040078684A1C012389108B40034307EBC20110
:1013140057F832007B600839C5E9020147F83250BA
:10132400C5603046BDE8F840FFF790BE002845D1BF
:101334000A44D3E9021342F00100CB60996068606B
:10134400AA50D7E7142B08D9542B1ED80B0B03F142
:101354006F04E40003F16E0289E703F15C04E40026
:1013640003F15B0283E718468EE793107968012244
:1013740002FA03F30B437B60034686E7C7E904558F
:10138400C5E902006A606950B4E7B3F5AA7F06D8DC
:10139400CB0B03F17804E40003F1770267E740F232
:1013A4005452934206D88B0C03F17D04E40003F1FC
:1013B4007C025CE74FF47E747E2258E741F0010220
:1013C4006A60196096E700BF3004002038040020EA
:1013D4003C08002098080020704700BF704700BFF9
:1013E4002DE9F8432B4D0646286898460F4691464A
:1013F400FFF7F2FF284B1C68D4F84831002B3DD08E
:101404005A681F2A0DDC02F1010C16BB0232C3F824
:1014140004C0286843F82270FFF7E0FF0020BDE80D
:10142400F8831E4B7BB34FF4C870FFF75DFB034694
:1014340048B3D4F848210021C0E900214FF0010C41
:10144400C4F848010A46C0F88811C0F88C11002E6F
:10145400DCD003EB82010124C1F88890D3F8880121
:1014640094402043022EC3F88801C1F80881CDD1ED
:10147400D3F88C110C43C3F88C41C7E704F5A67369
:10148400C4F84831BCE72868FFF7A8FF4FF0FF30E5
:10149400C5E700BF40080020CC140008ED0A00088E
:1014A400F8B500BFF8BC08BC9E467047F8B500BF4D
:0814B400F8BC08BC9E4670471D
:1014BC0074656D702076616C7565203D20000000B0
:1014CC000800002030313233343536373839616218
:1014DC00636465666768696A6B6C6D6E6F70717258
:0C14EC00737475767778797A0000000040
:0814F80001110008B901000810
:041500009501000849
:10150400080000200000000000000000F402002099
:101514005C030020C4030020000000000000000061
:1015240000000000000000000000000000000000B7
:1015340000000000000000000000000000000000A7
:101544000000000000000000000000000000000097
:101554000000000000000000000000000000000087
:101564000000000000000000000000000000000077
:101574000000000000000000000000000000000067
:101584000000000000000000000000000000000057
:101594000000000000000000000000000000000047
:1015A4000000000000000000000000000000000037
:1015B40001000000000000000E33CDAB34126DE6D4
:1015C400ECDE05000B00000000000000000000003D
:1015D4000000000000000000000000000000000007
:1015E40000000000000000000000000000000000F7
:1015F40000000000000000000000000000000000E7
:1016040000000000000000000000000000000000D6
:1019340000000000000000003004002030040020FB
:101944003804002038040020400400204004002013
:1019540048040020480400205004002050040020C3
:101964005804002058040020600400206004002073
:101974006804002068040020700400207004002023
:1019840078040020780400208004002080040020D3
:101994008804002088040020900400209004002083
:1019A4009804002098040020A0040020A004002033
:1019B400A8040020A8040020B0040020B0040020E3
:1019C400B8040020B8040020C0040020C004002093
:1019D400C8040020C8040020D0040020D004002043
:1019E400D8040020D8040020E0040020E0040020F3
:1019F400E8040020E8040020F0040020F0040020A3
:101A0400F8040020F8040020000500200005002050
:101A140008050020080500201005002010050020FE
:101A240018050020180500202005002020050020AE
:101A3400280500202805002030050020300500205E
:101A4400380500203805002040050020400500200E
:101A540048050020480500205005002050050020BE
:101A6400580500205805002060050020600500206E
:101A7400680500206805002070050020700500201E
:101A840078050020780500208005002080050020CE
:101A9400880500208805002090050020900500207E
:101AA4009805002098050020A0050020A00500202E
:101AB400A8050020A8050020B0050020B0050020DE
:101AC400B8050020B8050020C0050020C00500208E
:101AD400C8050020C8050020D0050020D00500203E
:101AE400D8050020D8050020E0050020E0050020EE
:101AF400E8050020E8050020F0050020F00500209E
:101B0400F8050020F805002000060020000600204B
:101B140008060020080600201006002010060020F9
:101B240018060020180600202006002020060020A9
:101B34002806002028060020300600203006002059
:101B44003806002038060020400600204006002009
:101B540048060020480600205006002050060020B9
:101B64005806002058060020600600206006002069
:101B74006806002068060020700600207006002019
:101B840078060020780600208006002080060020C9
:101B94008806002088060020900600209006002079
:101BA4009806002098060020A0060020A006002029
:101BB400A8060020A8060020B0060020B0060020D9
:101BC400B8060020B8060020C0060020C006002089
:101BD400C8060020C8060020D0060020D006002039
:101BE400D8060020D8060020E0060020E0060020E9
:101BF400E8060020E8060020F0060020F006002099
:101C0400F8060020F8060020000700200007002046
:101C140008070020080700201007002010070020F4
:101C240018070020180700202007002020070020A4
:101C34002807002028070020300700203007002054
:101C44003807002038070020400700204007002004
:101C540048070020480700205007002050070020B4
:101C64005807002058070020600700206007002064
:101C74006807002068070020700700207007002014
:101C840078070020780700208007002080070020C4
:101C94008807002088070020900700209007002074
:101CA4009807002098070020A0070020A007002024
:101CB400A8070020A8070020B0070020B0070020D4
:101CC400B8070020B8070020C0070020C007002084
:101CD400C8070020C8070020D0070020D007002034
:101CE400D8070020D8070020E0070020E0070020E4
:101CF400E8070020E8070020F0070020F007002094
:101D0400F8070020F8070020000800200008002041
:101D140008080020080800201008002010080020EF
:101D2400180800201808002020080020200800209F
:101D34002808002028080020FFFFFFFF0000020001
:041D4400B4080020BF
:0400000508000A09DC
:00000001FF
